:020000040800F2
:10000000E806002089010008ED10000879100008BA
:10001000E9100008910200083915000800000000EE
:100020000000000000000000000000004D1100086A
:1000300095020008000000001D110008E9110008E9
:10004000A3010008A3010008A3010008A301000800
:10005000A3010008A3010008A3010008A3010008F0
:10006000A3010008A3010008A3010008A3010008E0
:10007000A3010008A3010008A3010008A3010008D0
:10008000A3010008A3010008A3010008A3010008C0
:10009000A3010008A3010008A3010008A3010008B0
:1000A000A3010008A3010008A3010008A3010008A0
:1000B000A3010008A3010008A3010008A301000890
:1000C000A3010008A3010008A3010008A301000880
:1000D000A301000829150008A3010008A3010008D6
:1000E000A3010008A3010008A301000800F002F822
:1000F00000F03AF80AA090E8000C82448344AAF188
:100100000107DA4501D100F02FF8AFF2090EBAE885
:100110000F0013F0010F18BFFB1A43F0010318473B
:10012000BC170000DC170000103A24BF78C878C163
:10013000FAD8520724BF30C830C144BF04680C60ED
:10014000704700000023002400250026103A28BF35
:1001500078C1FBD8520728BF30C148BF0B60704739
:100160001FB51FBD10B510BD00F058F81146FFF7C0
:10017000F7FF01F09BFA00F076F803B4FFF7F2FF07
:1001800003BC00F07DF8000009488047094800479B
:10019000FEE7FEE7FEE7FEE7FEE7FEE7FEE7FEE737
:1001A000FEE7FEE704480549054A064B7047000094
:1001B00051120008ED000008E8000020E8060020C9
:1001C000E8020020E80200204FF0000200B51346CC
:1001D00094469646203922BFA0E80C50A0E80C5067
:1001E000B1F12001BFF4F7AF090728BFA0E80C5018
:1001F00048BF0CC05DF804EB890028BF40F8042B11
:1002000008BF704748BF20F8022B11F0804F18BF7D
:1002100000F8012B7047704770477047754600F033
:100220002BF8AE4605006946534620F00700854688
:1002300018B020B5FFF7B6FFBDE820404FF000062C
:100240004FF000074FF000084FF0000BAC46ACE851
:10025000C009ACE8C009ACE8C009ACE8C00921F0AD
:1002600007018D46704710B50446AFF30080204665
:10027000BDE81040FFF781BF00487047180000201C
:1002800001491820ABBEFEE72600020070470000BF
:10029000FEE7000070470000EFF3108072B600BF69
:1002A000FEE70000014690F82100022813D10868FB
:1002B000D1E90FC3026822F00E020260026822F048
:1002C00001020260012000FA03F2CCF8042081F858
:1002D0002100002002E0042088630120002281F830
:1002E0002020704780B590F82110022923D10268A0
:1002F000116821F00E0111602F211368C4F2020170
:100300008A4240F20401C4F2020123F001031360A7
:1003100016DD3023C4F202039A421DD04423C4F2F6
:1003200002039A421BD05823C4F202039A421BD103
:100330004FF4803320E0042181630121084680BD11
:100340000823C4F202039A420CD01C23C4F2020315
:100350009A4209D110230FE04FF480730CE04FF460
:10036000805309E0012307E001F1680C4FF080732E
:10037000624508BF4FF480130B60012180F8211003
:10038000426B002180F820100AB1904700210846F6
:1003900080BD0000B0B5044600F01EF9054640F2ED
:1003A0001300C2F200000078611C18BF044400BFB3
:1003B00000F012F9401BA042FAD3B0BD2DE9F04F76
:1003C00084B00E680290002E00F0038140F20C4EC3
:1003D00040F2004741F200420298C4F2010EC4F21A
:1003E0000107C4F201020423002401254FF0000A92
:1003F0004FF00009904208BF032300930AE000BFBA
:1004000001250E680AF1010A36FA0AF204F1040421
:1004100000F0DF8005FA0AFB16EA0B08F1D04A6803
:100420004FF6FF73C1F210039A4211DC122A54D81E
:100430000298DFE802F0350A4347535353535353AE
:10044000535353535353534A4E00D1F80C9045E045
:100450004FF6FF73C1F221039A4210DC0023C1F270
:10046000110302989A421BD00023C1F212039A4250
:1004700016D00023C1F221039A4211D02EE00023AE
:10048000C1F2220302989A420AD00023C1F231033A
:100490009A4205D00023C1F232039A421ED100BF16
:1004A0008A6842B1012A14BFC0F814B0C0F810B075
:1004B0004FF0080912E04FF004090FE0CA6802F19A
:1004C00008090BE04FF0000908E0CA6802F10409CE
:1004D00004E0CA6802F10C0900E0029822460346D3
:1004E000B8F5807F24BF203A04331D684FF00F0C0D
:1004F0000CFA02F6B54309FA02F22A431A60CA79E5
:10050000D2067FF57DAF41F21803CDF80490C4F216
:1005100002031A68F34642F001021A601A684FEAB1
:100520009A0E02F001020392039AA7F57E72B94671
:1005300052F82E3004F00C0740F600060CFA07F5CE
:10054000C4F20106B04223EA050C10D040F6004385
:10055000C4F2010398420CD041F20003C4F201033B
:100560009842009B4FF0010508BF022303E00023DF
:1005700000E001230125BB4043EA0C0342F82E3082
:100580004E684F46F202D9F8082054BF22EA08020A
:1005900042EA0802DE46DDF80490BA60DEF8002088
:1005A000B30254BF22EA080242EA0802CEF8002051
:1005B0007A68B30354BF22EA080242EA08027A606A
:1005C0003A68F30354BF22EA080242EA08023A609A
:1005D00017E704B0BDE8F08F40F2E000C2F200007F
:1005E0000068704740F2130040F2E001C2F20000E0
:1005F000C2F2000100780A681044086070470000E9
:1006000080B542F20000C4F20200016841F010011E
:100610000160032000F066F80F2000F005F800F0FC
:100620002BF8002080BD0000B0B540F21302C2F2EA
:10063000000240F200011278C2F200014FF47A7316
:100640000968B3FBF2F20446B1FBF2F1084600F090
:10065000E9FA0F2C4FF001050CD858B94FF0FF30D4
:1006600021460022002500F02DF840F21400C2F2CD
:10067000000004602846B0BD82B041F21800C4F208
:1006800002000168022241F001010160016801F0ED
:10069000010101910199416841F080514160406838
:1006A00000F08050009000980420C4F2010001681E
:1006B00062F31A61016002B07047000080B500F07B
:1006C0003DFF80BD70B514460D46064600F046FF5E
:1006D0002946224600F00CFD0146304600F046FF58
:1006E00070BD000080B500F053FF80BD2DE9F043E0
:1006F00081B0002800F0878042F20008C4F20208AE
:100700000446D8F800000D4600F0070088420CD2DD
:10071000D8F8000020F007002843C8F80000D8F8F7
:10072000000000F00700A8426DD1206841F20409E2
:100730008107C4F2020917D5410705D5D9F8001081
:1007400041F4E061C9F80010010705D5D9F800109F
:1007500041F46051C9F80010D9F80010A26821F0E6
:10076000F0011143C9F80010C00745D1D8F80000C6
:1007700000F00700A8420CD9D8F8000020F00700CC
:100780002843C8F80000D8F8000000F00700A8428D
:1007900039D12068410707D5D9F80010E26821F463
:1007A000E0611143C9F80010000708D5D9F800002E
:1007B000216920F4605040EAC100C9F8000000F04F
:1007C00077F8D9F8001041F6C402C1F30311C0F65E
:1007D0000002515C40F2000220FA01F140F21400E4
:1007E000C2F200000068C2F200021160FFF71CFFB5
:1007F000002001B0BDE8F0836068012807D159F8F6
:10080000041C89030CD4012001B0BDE8F08359F821
:10081000041C022802D18901F5D501E08907F2D52F
:10082000D9F8001021F003010843C9F80000FFF7D0
:10083000D3FE064641F28837D9F80000616800F01F
:100840000C00B0EB810F91D0FFF7C6FE801BB842C1
:10085000F2D9032001B0BDE8F083000040F20000AF
:10086000C2F200000068704780B5FFF7F7FF41F261
:100870000401C4F20201096841F6D402C1F3022165
:10088000C0F60002515CC84080BD000080B5FFF793
:10089000E5FF41F20401C4F20201096841F6D40205
:1008A000C1F3C221C0F60002515CC84080BD000007
:1008B00041F2040CC4F2020CDCF8003003F00C002E
:1008C000082841F20020C0F27A0018BF7047C3F335
:1008D00083420AA18A5CD90305D440F60010C0F215
:1008E0003D0050437047DCF8001008A3C1F34041BD
:1008F000595C5043B0FBF1F0704700BF02030405A0
:10090000060708090A0B0C0D0E0F1010010200005B
:100910002DE9F04182B0002800F0C4800446007840
:1009200041F20006C007C4F2020643D0706800F02E
:100930000C00042817D0706800F00C00082802D1C1
:100940007068C0030FD465689DB1B5F5803F06D0CF
:100950003068B5F5A02F0DD140F4802030603068AC
:1009600040F480300CE03068800323D5606808BB19
:1009700098E0306820F480303060306820F48020C7
:100980003060FFF729FE002D054610D03068800347
:1009900010D4FFF721FE401B6428F7D908E100BFFF
:1009A000FFF71AFE401B64284FF0030077D8306829
:1009B0008003F5D42078800718D5706810F00C0FEC
:1009C00007D0706800F00C00082826D17068C003BA
:1009D00023D43068800702D52069012862D13068AD
:1009E000616920F0F80040EAC1003060207800071B
:1009F0003DD5A06938B30020C4F242200121C0F8DF
:100A00008014FFF7E9FD0546706A80072DD4FFF7D3
:100A1000E3FD401B0228F7D9CAE02069002840F214
:100A20000000C4F2422000F09A8001210160FFF72B
:100A3000D3FD054630688007D1D4FFF7CDFD401BBC
:100A40000228F7D9B4E00020C4F242200021C0F807
:100A50008014FFF7C1FD0546706A800707D5FFF7D0
:100A6000BBFD401B0228F7D9A2E000F059FB20781B
:100A700040071BD4E5698DB1706800F00C000828B0
:100A80004CD1012D0ED07068216A00F480328A4268
:100A900008D1616A00F47010884203D1002002B0CE
:100AA000BDE8F081012002B0BDE8F081F069C0002E
:100AB0000BD4F0694FF0010840F08050F061F0690C
:100AC00000F080500190019801E04FF0000847F2DB
:100AD0000007C4F200073868C00510D4386840F435
:100AE00080703860FFF778FD054600BF3868C005A4
:100AF00005D4FFF771FD401B6428F7D958E0E5687D
:100B0000002D3DD0012D05D0306A052D39D140F0A2
:100B100004003062306A40F0010038E00027C4F27F
:100B2000422700203866FFF757FD022D05460BD1FE
:100B30003068800154D5FFF74FFD401B02284FF06D
:100B40000300F5D9ABE700BF30688001A6D5FFF7F9
:100B500043FD401B02284FF00300F5D99FE7002119
:100B60000160FFF739FD0546306880077FF53EAF2D
:100B7000FFF732FD401B02284FF00300F4D98EE747
:100B8000306A20F001003062306A20F004003062E8
:100B9000FFF722FD002D054641F2883714D000BF33
:100BA000306A800713D4FFF717FD401BB842F7D90E
:100BB000032002B0BDE8F081FFF70EFD401BB842F4
:100BC0004FF003003FF66BAF306A8007F4D4B8F102
:100BD000000F3FF44FAFF06920F08050F06149E71B
:100BE000206AB0F5803F05D17168A26821F4003118
:100BF000114371607168626A21F4741110430843F3
:100C0000706001203866FFF7E7FC04463068800119
:100C10003FF544AFFFF7E0FC001B02284FF0030054
:100C2000F4D93CE780B500F0C7FA80BD70470000FA
:100C30007047000070B582B0036804461868D96830
:100C40005D6900F02F02202A01F0200205D122B1B7
:100C5000204600F03BFB02B070BD5FEA007C08D08C
:100C600005F0010E11F4907F8EF001054FD1002D9B
:100C70004DD0226B0840C1063FD5012A3DD100204E
:100C800001901868019058680190019858694006D1
:100C900000F19C80A08DE18DE28D002A1CBF401ADE
:100CA0005FEA004102D102B070BD00BF216851E887
:100CB000031F226821F4907142E80313002BF5D141
:100CC000216851E8051F226821F0010142E805135F
:100CD000002BF5D1202184F842100021216300BFB0
:100CE000216851E8031F226821F0100142E8031334
:100CF000002BF5D102216163AEE0010600F1B28064
:100D00004006D0D5204600F0D5FA02B070BDC3072A
:100D100018BF11F4807303D0636C43F00103636464
:100D200000F00406012383EA96062E4303D1666C85
:100D300046F00206666400F0020683EA56032B437F
:100D400003D1636C43F00403636452EA0E0218BFDC
:100D50000122BCF1000F04D51AB1626C42F0080206
:100D60006264626C002A9ED00840800602D520464C
:100D700000F0ACFA20684069616C00F0400001F0BE
:100D80000801401878D0204600F06CFA20684069CD
:100D900040066CD5206850E8050F216820F040001F
:100DA00041E80502002AF5D1E06B00285FD041F24E
:100DB0005521C0F600014163FFF794FA00283FF483
:100DC00072AFE06B416B884702B070BDE06B0168A9
:100DD00049688AB2002A3FF466AFA38D9A42BFF4F5
:100DE00062AFE1858069202831D000BF206850E8DB
:100DF000030F216820F4807041E80302002AF5D136
:100E0000206850E8050F216820F0010041E8050244
:100E1000002AF5D1206850E8050F216820F0400035
:100E200041E80502002AF5D1202084F84200002084
:100E3000206300BF206850E8030F216820F01000F5
:100E400041E80302002AF5D1E06BFFF72BFA0220FC
:100E50006063A08DE18D401A81B22046FFF7E6FE67
:100E600002B070BD204600F0F7FA02B070BD204617
:100E7000FFF7DEFE02B070BD2046FFF7D9FE00206E
:100E8000606402B070BD0000002804BF01207047FC
:100E900010B5044690F8410028B9002084F84000BD
:100EA000204600F021F8242084F841002068C16821
:100EB00021F40051C160204600F06CFA20680169FD
:100EC00021F490410161416921F02A014161C16829
:100ED00041F40051C16000202021606484F8411079
:100EE00084F84210606310BD70B586B0002640F6ED
:100EF00000040596CDE90366C4F20104006804F518
:100F000040518842029601D006B070BD41F21800EF
:100F1000C4F20200016802AD41F480410160016841
:100F200001F4804101910199016841F004010160DF
:100F30000068294600F00400019001984FF4007009
:100F4000029002200390032005902046FFF736FA16
:100F50004FF48060CDE90206204629460496FFF74B
:100F60002DFA252001210022FFF7ACFB2520FFF7F9
:100F7000A5FB06B070BD000010B590F84230202BE4
:100F80001CBF022010BD00294FF0010418BF002A29
:100F900001D1204610BD0024046300F043FA20462E
:100FA00010BD000010B540F28404C2F200042078A5
:100FB00000F0FEFA40F28800C2F200002146012251
:100FC000FFF7DAFF10BD00002DE9F041044690F86C
:100FD000410020281CBF0220BDE8F0810E460029F8
:100FE0004FF0010044D01746002A08BFBDE8F08149
:100FF0004FF0000821201D46C4F8448084F84100C9
:10100000FFF7EAFAA784E784A1680746B1F5805F95
:101010000DD12069002814BF3046B046064606E0D0
:1010200016F8010B21684860E08C0138E084E08C00
:1010300080B1204680213A462B4600F037FA80B92D
:10104000002EEDD138F8020B21686FF35F20486065
:101050000026E9E7204640213A462B4600F026FAD2
:1010600010B10320BDE8F081202084F84100002069
:10107000BDE8F08170470000FEE7000082B041F259
:101080001800C4F20200016841F02001016001680B
:1010900001F0200101910199016841F00401016012
:1010A000006800F004000090009802B07047000053
:1010B00080B540F2880043F60001C2F20000C4F29D
:1010C000010100234FF00C0C4FF4165280E80E0083
:1010D000C0E90333C0E905C3C361FFF7D5FE0028AB
:1010E00008BF80BDFFF7D8F8FEE70000FEE700006C
:1010F00000F0070080F00703042B28BF04234FF003
:10110000FF3C03380CFA03F338BF002099438140B9
:101110000CFA00F022EA0000084370477047000014
:1011200081B040F20000C2F20000006844F6D351E2
:10113000C1F26201A0FB0101480A009000BF0098C3
:10114000411E00280091F9D101B07047704700009E
:1011500080B540F2880040F20E01C2F20000C2F2F7
:10116000000105226423FFF72FFFC820FFF712F9C3
:10117000FFF732FAC9280BD340F2880040F204018D
:10118000C2F20000C2F2000105226423FFF71CFF37
:10119000FFF722FAB0F5C87F98BF80BD40F2880003
:1011A00040F20901C2F20000C2F2000105226423EC
:1011B000FFF70AFF80BD0000B0B501380024B4EB92
:1011C000106F1CBF0120B0BD4EF21005CEF200051D
:1011D00068604FF0FF300F2100F0C8F90720AC60C5
:1011E00028602046B0BD000080B5FFF7FBF980BD48
:1011F00070B590B006AC20462821FEF7E5FF00252B
:1012000001204FF480310690CDE907150A9002269F
:101210004FF4E010CDE90D610F9020460595CDE922
:101220000355CDE90155FFF773FB78B90F20CDE9E0
:1012300001064FF480600395CDE9040501A8022161
:10124000FFF754FA002804BF10B070BDFFF724F870
:101250007047000080B5406A0021C185C184FFF756
:10126000E7FC80BD016851E8031F026821F490711A
:1012700042E80313002BF5D1016851E8051F02680D
:1012800021F0010142E80513002BF5D1016B012982
:101290000AD100BF016851E8031F026821F0100164
:1012A00042E80313002BF5D1202180F842100021E1
:1012B0000163704780B50168CA6822F04002CA60C5
:1012C000202180F84110FFF7D5FE80BD80B582B0A7
:1012D00090F8421022291ED18268B2F5805F02D1B7
:1012E000016900294AD0816AB2F5805F07D00AB946
:1012F000026922B10268526802F07F0201E00268CE
:1013000052680A700121826A11448162C18D0139DB
:101310000A04C18501D002B080BD0168CA6822F00C
:101320002002CA60CA6822F48072CA604A6922F048
:1013300001024A61202180F8421000214163026BC2
:10134000012A23D1016300BF016851E8031F02682D
:1013500021F0100142E80313002BF5D101680A685F
:10136000D20606D5002201920A68019249680191CD
:101370000199818DFFF75AFC02B080BD0168826A35
:1013800049686FF35F2111800221BCE7FFF70AFE75
:1013900002B080BD10B504460068D4E902C22369DA
:1013A000016921F4405111430161616943EA0C0272
:1013B0001143C26841F20C639A431143C160416911
:1013C000A26921F44071114343F60002C4F2010204
:1013D0009042416102D0FFF747FA01E0FFF756FA69
:1013E0006268192148439100B0FBF1F048F21F51A7
:1013F000C5F2EB11A0FB01235A096FF0630302FB56
:101400000300322303EB0010A0FB0101F02303EAE9
:101410005113206803EB0212C1F3431111448160A0
:1014200010BD0000816200218285C28541642221B5
:1014300080F84210016921B10168CA6842F48072E3
:10144000CA600168486940F001004861C86840F01E
:1014500020020020CA60704790F84110212923D152
:101460008168B1F5805F01D1016931B1016A02681B
:101470004B1C03620978516007E0016A036831F888
:10148000022B6FF35F225A600162C18C01390A049A
:10149000C18418BF70470068C16821F08001C16035
:1014A000C16841F04001C160704700002DE9F04182
:1014B0000446006800680840884202D10020BDE868
:1014C000F0811D460E4690465F1C04E020680068CF
:1014D0003040B042F2D0002FF8D02DB1FFF77CF8A9
:1014E000A0EB0800A842F1D9206850E8030F21685A
:1014F00020F4D07041E80302002AF5D1206850E8BA
:10150000050F216820F0010041E80502002AF5D10D
:10151000202084F8410084F84200002084F8400034
:101520000320BDE8F081000080B540F28800C2F2DF
:101530000000FFF77FFB80BDFEE70000002848BFEA
:10154000704700F01F01012202FA01F14EF2001271
:101550004009CEF2000242F8201070474EF60C50BF
:10156000CEF200000068C0F3022070474EF614531C
:1015700000F00F02CEF2000309011A4400F16043AB
:10158000B0F1FF3FC8BF03F564421170704700001F
:101590004EF60C51CEF200010A684FF6FF031A40D6
:1015A00060F30A2242F0806040F0FD7008607047EE
:1015B00040F2DD0CC2F2000C552840F2D4039CF836
:1015C0000010C2F2000302BF002901221A701A782B
:1015D000012A18BF70470A290BD140F27802C2F2E3
:1015E0000002505440F2DC00C2F200000121017000
:1015F00070474A1C8CF8002040F27802C2F20002C8
:1016000050547047F0B581B040F2DC07C2F20007D9
:101610003878012847D140F27801C2F200014878B9
:10162000532834D1B1F90200B1F90460B1F9064090
:1016300000F064F84FF0605100F078F80025C4F233
:101640003435294600F072F840F2D801C2F20001A8
:101650000860304600F052F84FF0605100F066F834
:10166000294600F063F840F2D001C2F200010860A0
:10167000204600F043F84FF0605100F057F829463B
:1016800000F054F840F2E401C2F20001086040F2B8
:10169000D400C2F200000021017040F2DD00C2F26D
:1016A00000000170397001B0F0BD0000FEF7A8FF26
:1016B000FFF79EFDFFF7E2FCFFF7FAFC40F288001F
:1016C00040F28401C2F20000C2F2000101220124B2
:1016D000FFF752FC40F28305C2F2000502E000BFB2
:1016E000FFF790FFFEF778FF2978B0F5FA6FF7D98A
:1016F0000029F5D1FFF72CFD2C70F1E710F0004127
:1017000048BF4042B0FA80F310FA03F2C3F19D03E0
:101710000BD051EAC35101EB1220530638BF70477A
:1017200000F1010008BF20F0010070474FF47F0C6A
:101730001CEAD0121EBF1CEAD11392EA0C0F93EAE6
:101740000C0F00F0478090EA010F48BF42F480720E
:101750004FF0004C4CEA00204CEA012102EB03025E
:10176000A0FB0113A2F50002002918BF43F00103FA
:101770005B0028BF4FEA330342EB22425FEA132C9F
:101780004CEBC2502EBFBCEB436FB2F57C0F7047E1
:101790004FEA036CBCF1004F08BF20F00100B2F526
:1017A0007C0F38BF70470BD582F0FF0212F5803FE7
:1017B000C8BF704700F1C040D8BF00F0004070477C
:1017C00000F5000C5FEA4C0C48BF7047B0F1C04018
:1017D00000F073B80CEAD11390EA010F48BF42F44D
:1017E0008072624538BF634504D280EA010000F090
:1017F0000040704710B500F01AF800BF8900013EA4
:1018000000F007B800F009B85FEA410C5FEA1C6C11
:1018100008D080EA010000F050B85FEA400C5FEAAF
:101820001C6CF6D14FF00040A0F5800070470EF11F
:10183000020E2EF0030E5EF8044B244204D44FEA4D
:101840004102B2F17F4F11D84FEA4003B3F17F4F0D
:101850000CD80ED14FEAD07C0CEB4C0C0CF1020CE6
:10186000B2F17F4F08BF4CEBD17C04E04FF0080C85
:1018700001E04FEAD17C0CEB4C0324FA03F404F0B2
:101880000704B4F1040C06D20EEB840CBDE8104042
:101890004CF0010C6047DFE80CF0070802024FF043
:1018A0000040A0F5800010BD0846420018BFD2F1EC
:1018B000807288BF00F0004010BDFF2141EAD05087
:1018C000C005704700000000000000000102030492
:1018D00006070809000000000102030400190008BF
:1018E0000000002018000000280100081819000856
:1018F00018000020D006000044010008000000008D
:101900000024F400FFAA010400FFAA000000FFAABF
:081910006988B5011000000018
:04000005080000ED02
:00000001FF
